:100000000C942A000C9449000C9447000C9447006F
:100010000C94C4000C9447000C9447000C944700C7
:100020000C9447000C946E000C9447000C9447000D
:100030000C9447000C9447000C9447000C94470024
:100040000C9447000C9447000C9447000C94470014
:100050000C94470011241FBECFE5D4E0DEBFCDBF16
:1000600010E0A0E6B0E0E4E2FFE002C005900D92EF
:10007000AA37B107D9F720E0AAE7B0E001C01D9286
:10008000A738B207E1F70E941E020C9490070C9467
:1000900000001F920F920FB60F9211248F939F931F
:1000A000AF93BF938091810090918200A0918300D3
:1000B000B09184000196A11DB11D809381009093A1
:1000C0008200A0938300B0938400BF91AF919F9171
:1000D0008F910F900FBE0F901F9018951F920F9247
:1000E0000FB60F9211242F933F934F935F936F930B
:1000F0007F938F939F93AF93BF93EF93FF9313BE21
:1001000080918000843130F11092800060918100F4
:100110007091820080918300909184000E94AB03D3
:100120002DEC3CEC4CEC52E40E94030320E030E068
:1001300040E752E40E9439040E947C0370938600D9
:1001400060938500109281001092820010928300CB
:1001500010928400809180008F5F8093800085E002
:1001600083BF86E082BFFF91EF91BF91AF919F91D6
:100170008F917F916F915F914F913F912F910F9050
:100180000FBE0F901F9018951F920F920FB60F92EF
:1001900011248F9315BC80917F00853010F0109250
:1001A0007F0080917F008F5F80937F0014BC87E089
:1001B00085BD8F910F900FBE0F901F9018959F9344
:1001C0008F937F936F9380E690E09F938F935F93DD
:1001D0004F930E94A6048DB79EB708960FB6F89469
:1001E0009EBF0FBE8DBF08959BB39F70282F207FA9
:1001F000922B9BBBD898D998DA9A0000DA9832E40F
:100200003A95F1F700C02BB32F7030E1839FC00106
:100210001124822B8BBBDA9A0000DA9883EF91E0ED
:100220000197F1F700C0000008959BB39F70282F3D
:10023000207F922B9BBBD89AD998DA9A0000DA9843
:1002400032E43A95F1F700C02BB32F7030E1839F71
:10025000C0011124822B8BBBDA9A0000DA9883EF5D
:1002600091E00197F1F700C00000089580EF8ABB8C
:100270008AB387608ABB87E893E10197F1F700C0F2
:10028000000082E00E94F40088E20E94F4008CE00A
:100290000E94F40086E00E94F40081E00C94F400D7
:1002A000CF93DF93EC018991882319F00E94150107
:1002B000FACFDF91CF910895CF93DF9300D0CDB7E0
:1002C000DEB790E8998390EC9A83FE01E60FF11D6A
:1002D0009181890F0F900F90DF91CF910C94F400D2
:1002E000EF92FF920F931F93CF93DF93CDB7DEB7BB
:1002F00064970FB6F894DEBF0FBECDBF7C0160914E
:100300007D0070917E0080E090E00E94AB0320E0D1
:1003100038EF49EF55E40E94030320E030E048EC59
:1003200052E40E9439040E9475038B016536710501
:1003300014F004E610E060E080E00E945C0184E6D6
:1003400090E00E94500160E086E00E945C01B801EC
:10035000012E000C880B990BAE01455F5F4F0E9488
:10036000DF00CE010B960E94500160E089E00E9400
:100370005C0189E690E00E9450010436110541F0CD
:1003800060E088E00E945C0180E790E00E945001FC
:1003900061E080E00E945C018BE690E00E945001E9
:1003A00061E086E00E945C01B701FF0C880B990BAD
:1003B000AE014F5F5F4F0E94DF00CE0101960E94A9
:1003C000500161E089E00E945C0182E790E00E94B8
:1003D000500180917B001CE0811111C060E0812FF1
:1003E0000E945C0180E20E9415011F5F1F30B1F77F
:1003F00060E08CE00E945C0187E790E010C060E064
:10040000812F0E945C0180E20E9415011F5F1F3056
:10041000B1F760E08CE00E945C0186E790E00E940A
:10042000500164960FB6F894DEBF0FBECDBFDF91CA
:10043000CF911F910F91FF90EF9008951ABA1BBAB8
:1004400017BA8FE088BB14BA15BA8AE281BB92E072
:1004500092BB85E083BF86E082BF22E82FBD29E101
:100460002EBD1DBC1CBC2FE127BD2FE326BD1BBC30
:100470001ABC19BC18BC27E025BD84BD81E489BF26
:100480008BB780648BBF95BF14BE80E48ABF78941D
:100490000E943601CFE3DFE10FE31FE188E0E82EA1
:1004A00092E0D92EF6B280917A0081117AC0F0FEE6
:1004B00003C0F1FC3AC031C087EA91E60197F1F739
:1004C00000C00000B099F5CF80917D0090917E0032
:1004D000805B9F4F8F332FE1920728F490937E002B
:1004E00080937D0004C010937E0000937D00809176
:1004F0007D0090917E00939B04C09E01281B390BC8
:10050000C9019BBD8ABD60917C0070E0809185002F
:10051000909186000E947001D5CF87EA91E60197FD
:10052000F1F700C00000B19B18C0F2FC3AC087EAA6
:1005300091E60197F1F700C0000082B38E2582BBDF
:1005400080917B0090E001968170992780937B00D9
:1005500091E29A95F1F7000024C080917D0090917E
:100560007E0080359105C0F08055910990937E0002
:1005700080937D00939B04C09E01281B390BC90109
:100580009BBD8ABD60917C0070E080918500909158
:1005900086000E947001C7CF10927E0010927D00ED
:1005A000C2CFF3FC14C087EA91E60197F1F700C0CF
:1005B000000081E090917A00911180E080937A00B0
:1005C00082B38D2582BB91E29A95F1F7000080916C
:1005D0007D0090917E00939B04C09E01281B390BE7
:1005E000C9019BBD8ABD60917C0070E0809185004F
:1005F000909186000E94700187EA91E60197F1F7D9
:1006000000C000004FCF0E9417030C94FF030E940C
:10061000F80358F00E94F10340F029F45F3F29F0FD
:100620000C94E80351110C9433040C94EE030E94D3
:10063000100468F39923B1F3552391F3951B550BDF
:10064000BB27AA2762177307840738F09F5F5F4FA5
:10065000220F331F441FAA1FA9F335D00E2E3AF0E4
:10066000E0E832D091505040E695001CCAF72BD0FC
:10067000FE2F29D0660F771F881FBB1F261737074D
:100680004807AB07B0E809F0BB0B802DBF01FF277F
:1006900093585F4F3AF09E3F510578F00C94E80371
:1006A0000C9433045F3FE4F3983ED4F3869577953A
:1006B0006795B795F7959F5FC9F7880F911D969538
:1006C000879597F90895E1E0660F771F881FBB1F94
:1006D000621773078407BA0720F0621B730B840B41
:1006E000BA0BEE1F88F7E09508950E947C0368948A
:1006F000B1110C94330408950E94180488F09F5798
:1007000098F0B92F9927B751B0F0E1F0660F771F35
:10071000881F991F1AF0BA95C9F714C0B13091F02B
:100720000E943204B1E008950C943204672F782FB0
:100730008827B85F39F0B93FCCF3869577956795F0
:10074000B395D9F73EF490958095709561957F4F5C
:100750008F4F9F4F0895E89409C097FB3EF4909502
:100760008095709561957F4F8F4F9F4F9923A9F08A
:10077000F92F96E9BB279395F69587957795679519
:10078000B795F111F8CFFAF4BB0F11F460FF1BC05D
:100790006F5F7F4F8F4F9F4F16C0882311F096E9F0
:1007A00011C0772321F09EE8872F762F05C066239E
:1007B00071F096E8862F70E060E02AF09A95660F57
:1007C000771F881FDAF7880F9695879597F9089510
:1007D00097F99F6780E870E060E008959FEF80ECF4
:1007E000089500240A941616170618060906089597
:1007F00000240A9412161306140605060895092EFD
:100800000394000C11F4882352F0BB0F40F4BF2B6B
:1008100011F460FF04C06F5F7F4F8F4F9F4F0895AB
:1008200057FD9058440F551F59F05F3F71F04795A1
:10083000880F97FB991F61F09F3F79F08795089586
:10084000121613061406551FF2CF4695F1DF08C0A5
:10085000161617061806991FF1CF869571056105C2
:1008600008940895E894BB2766277727CB0197F96A
:1008700008950E944C040C94FF030E94F10338F089
:100880000E94F80320F0952311F00C94E8030C94D7
:10089000EE0311240C9433040E94100470F3959F0E
:1008A000C1F3950F50E0551F629FF001729FBB2767
:1008B000F00DB11D639FAA27F00DB11DAA1F649F03
:1008C0006627B00DA11D661F829F2227B00DA11DB6
:1008D000621F739FB00DA11D621F839FA00D611D3C
:1008E000221F749F3327A00D611D231F849F600D5D
:1008F000211D822F762F6A2F11249F5750409AF086
:10090000F1F088234AF0EE0FFF1FBB1F661F771F11
:10091000881F91505040A9F79E3F510580F00C94DC
:10092000E8030C9433045F3FE4F3983ED4F38695D8
:1009300077956795B795F795E7959F5FC1F7FE2B7C
:10094000880F911D9695879597F90895AEE0B0E0D0
:10095000ECEAF4E00C9467070D891E8986E08C832D
:100960001A8309838FEF9FE79E838D83AE01475ED5
:100970005F4F6F89788DCE0101960E94C804EF8188
:10098000F885E00FF11F10822E96E4E00C948307A7
:10099000ABE0B0E0EEECF4E00C9459076C017B01A5
:1009A0008A01FC0117821682838181FFCCC1CE01AE
:1009B00001963C01F6019381F70193FD859193FF28
:1009C00081917F01882309F4BAC1853239F493FDFE
:1009D000859193FF81917F01853229F4B60190E0E2
:1009E0000E94BF06E7CF912C212C312CFFE1F3159B
:1009F000D8F08B3279F038F4803279F08332A1F478
:100A0000232D20611DC08D3261F0803369F4232DC8
:100A1000216016C0832D8260382EE32DE4603E2EC7
:100A20002AC0F32DF8601DC037FC2DC020ED280F23
:100A30002A3040F08E32B9F436FC81C1232D206477
:100A4000322E19C036FE06C08AE0989E200D112471
:100A5000922E11C0EAE02E9E200D1124222EF32D9D
:100A6000F0623F2E08C08C3621F4832D8068382E2A
:100A700002C0883641F4F70193FD859193FF81917F
:100A80007F018111B3CF982F9F7D9554933028F427
:100A90000C5F1F4F9FE399830DC0833631F083377E
:100AA00071F0833509F059C021C0F8018081898334
:100AB0000E5F1F4F88248394912C530113C028018B
:100AC000F2E04F0E511CF801A080B18036FE03C049
:100AD000692D70E002C06FEF7FEFC5010E94B40680
:100AE0004C018201F32DFF773F2E16C0280122E032
:100AF000420E511CF801A080B18036FE03C0692D62
:100B000070E002C06FEF7FEFC5010E94A9064C01A3
:100B1000F32DF0683F2E820133FC1BC0822D90E044
:100B200088169906B0F4B60180E290E00E94BF06F4
:100B30002A94F4CFF50137FC859137FE81915F014E
:100B4000B60190E00E94BF0621102A9421E0821A8B
:100B500091088114910471F7E8C0843611F0893648
:100B600041F5F80137FE07C0608171818281938170
:100B70000C5F1F4F08C060817181072E000C880B2D
:100B8000990B0E5F1F4FF32DFF763F2E97FF09C085
:100B900090958095709561957F4F8F4F9F4FF0682E
:100BA0003F2E2AE030E0A3010E94FB06882E861823
:100BB00045C0853731F4232D2F7EB22E2AE030E058
:100BC00025C0932D997FB92E8F36C1F018F4883542
:100BD00079F0B5C0803719F0883721F0B0C0E92F1F
:100BE000E061BE2EB4FE0DC0FB2DF460BF2E09C027
:100BF00034FE0AC0292F2660B22E06C028E030E05D
:100C000005C020E130E002C020E132E0F801B7FE8B
:100C100007C060817181828193810C5F1F4F06C084
:100C20006081718180E090E00E5F1F4FA3010E9400
:100C3000FB06882E8618FB2DFF773F2E36FE0DC053
:100C4000232D2E7FA22E891458F434FE0BC032FCC3
:100C500009C0832D8E7EA82E05C0B82CA32C03C0FE
:100C6000B82C01C0B92CA4FE0FC0FE01E80DF11D87
:100C70008081803321F49A2D997EA92E09C0A2FE8D
:100C800006C0B394B39404C08A2D867809F0B39457
:100C9000A3FC11C0A0FE06C0B21488F4280C922C4C
:100CA0009B180EC0B21460F4B60180E290E00E947E
:100CB000BF06B394F7CFB21418F42B1802C0982CC7
:100CC000212CA4FE10C0B60180E390E00E94BF0674
:100CD000A2FE17C0A1FC03C088E790E002C088E52F
:100CE00090E0B6010CC08A2D867859F0A1FE02C0B2
:100CF0008BE201C080E2A7FC8DE2B60190E00E9489
:100D0000BF06891438F4B60180E390E00E94BF0664
:100D10009A94F7CF8A94F301E80DF11D8081B60112
:100D200090E00E94BF068110F5CF222009F442CE48
:100D3000B60180E290E00E94BF062A94F6CFF60149
:100D40008681978102C08FEF9FEF2B96E2E10C9492
:100D50007507FC010590615070400110D8F780952F
:100D600090958E0F9F1F0895FC0161507040019077
:100D70000110D8F7809590958E0F9F1F08950F93BF
:100D80001F93CF93DF93FB01238121FD03C08FEFDE
:100D90009FEF2CC022FF16C04681578124813581E8
:100DA0004217530744F4A081B1819D012F5F3F4F4B
:100DB000318320838C93268137812F5F3F4F378388
:100DC000268314C08B01EC01FB010084F185E02D2A
:100DD0000995892BE1F6D80116968D919C9117976C
:100DE000019617969C938E931697CE01DF91CF9123
:100DF0001F910F910895FA01AA27283051F120314F
:100E000081F1E8946F936E7F6E5F7F4F8F4F9F4F9E
:100E1000AF4FB1E03ED0B4E03CD0670F781F891FE0
:100E20009A1FA11D680F791F8A1F911DA11D6A0FAE
:100E3000711D811D911DA11D20D009F468943F9161
:100E40002AE0269F11243019305D3193DEF6CF0160
:100E50000895462F4770405D4193B3E00FD0C9F726
:100E6000F6CF462F4F70405D4A3318F0495D31FD93
:100E70004052419302D0A9F7EACFB4E0A6959795E6
:100E8000879577956795BA95C9F7009761057105BC
:100E900008959B01AC010A2E069457954795379506
:100EA0002795BA95C9F7620F731F841F951FA01D60
:100EB00008952F923F924F925F926F927F928F92FE
:100EC0009F92AF92BF92CF92DF92EF92FF920F93D9
:100ED0001F93CF93DF93CDB7DEB7CA1BDB0B0FB6E3
:100EE000F894DEBF0FBECDBF09942A8839884888A0
:100EF0005F846E847D848C849B84AA84B984C88436
:100F0000DF80EE80FD800C811B81AA81B981CE0F2C
:100F1000D11D0FB6F894DEBF0FBECDBFED01089511
:040F2000F894FFCF73
:100F2400256C640050574D2000250053504545441E
:0A0F3400200052504D0043435700C7
:00000001FF
