S01A0000436F6E74726F6C5F44435F4D6F746F725F432E7372656331
S11300000C942A000C9449000C9447000C9447006B
S11300100C94C4000C9447000C9447000C944700C3
S11300200C9447000C946E000C9447000C94470009
S11300300C9447000C9447000C9447000C94470020
S11300400C9447000C9447000C9447000C94470010
S11300500C94470011241FBECFE5D4E0DEBFCDBF12
S113006010E0A0E6B0E0EEEAFFE002C005900D92D9
S1130070AE37B107D9F720E0AEE7B0E001C01D927A
S1130080AB38B207E1F70E9450020C94D5070C94E8
S113009000001F920F920FB60F9211248F939F931B
S11300A0AF93BF938091850090918600A0918700C3
S11300B0B09188000196A11DB11D80938500909395
S11300C08600A0938700B0938800BF91AF919F9161
S11300D08F910F900FBE0F901F9018951F920F9243
S11300E00FB60F9211242F933F934F935F936F9307
S11300F07F938F939F93AF93BF93EF93FF9313BE1D
S113010080918400843130F11092840060918500E4
S11301107091860080918700909188000E94F0037E
S11301202DEC3CEC4CE451E40E94480320E030E028
S113013040E752E40E947E040E94C10370938A0047
S113014060938900109285001092860010928700B7
S113015010928800809184008F5F8093840085E0F2
S113016083BF86E082BFFF91EF91BF91AF919F91D2
S11301708F917F916F915F914F913F912F910F904C
S11301800FBE0F901F9018951F920F920FB60F92EB
S113019011248F9315BC80918300853010F0109248
S11301A08300809183008F5F8093830014BC87E079
S11301B085BD8F910F900FBE0F901F9018959F9340
S11301C08F937F936F9380E690E09F938F935F93D9
S11301D04F930E94EB048DB79EB708960FB6F89420
S11301E09EBF0FBE8DBF08959BB39F70282F207FA5
S11301F0922B9BBBD898D998DA9A32E03A95F1F7CA
S113020000C0DA98EFE8F1E03197F1F700C00000A0
S11302102BB32F70F0E18F9FC0011124822B8BBB75
S1130220DA9A32E03A95F1F700C0DA988FE99FE064
S11302300197F1F700C0000008959BB39F70282F29
S1130240207F922B9BBBD89AD998DA9A32E03A95C0
S1130250F1F700C0DA98EFE8F1E03197F1F700C068
S113026000002BB32F70F0E18F9FC0011124822B6B
S11302708BBBDA9A32E03A95F1F700C0DA988FE94D
S11302809FE00197F1F700C00000089580EF8ABB5A
S11302908AB387608ABB8FE39CE90197F1F700C0BA
S11302A0000082E00E94F40088E20E94F4008CE0E6
S11302B00E94F40086E00E94F40081E00C94F400B3
S11302C0CF93DF93EC018991882319F00E941D01DB
S11302D0FACFDF91CF910895CF93DF9300D0CDB7BC
S11302E0DEB790E8998390EC9A83FE01E60FF11D46
S11302F09181890F0F900F90DF91CF910C94F400AE
S1130300EF92FF920F931F93CF93DF93CDB7DEB796
S113031064970FB6F894DEBF0FBECDBF7C01609129
S113032081007091820080E090E00E94F00320E060
S113033038EF49EF55E40E94480320E030E048ECF0
S113034052E40E947E040E94BA038B016536710553
S113035014F004E610E060E080E00E946C0184E6A2
S113036090E00E94600160E086E00E946C01AE01B2
S1130370455F5F4FB801012E000C880B990B0E945A
S1130380DF00CE010B960E9460010A3011053CF497
S113039060E087E00E946C0189E690E009C00436C1
S11303A0110541F060E088E00E946C018AE690E06B
S11303B00E94600160E089E00E946C018CE690E09C
S11303C00E94600161E080E00E946C018EE690E092
S11303D00E94600161E086E00E946C01AE014F5F03
S11303E05F4FB7010F2C000C880B990B0E94DF00A4
S11303F0CE0101960E9460018AE0E816F1043CF403
S113040061E087E00E946C0189E690E00AC084E61E
S1130410E816F10444F461E088E00E946C018AE685
S113042090E00E94600161E089E00E946C0185E730
S113043090E00E94600180917F001CE0811111C056
S113044060E0812F0E946C0180E20E941D011F5F09
S11304501F30B1F760E08CE00E946C018AE790E005
S113046010C060E0812F0E946C0180E20E941D0197
S11304701F5F1F30B1F760E08CE00E946C0189E7D8
S113048090E00E94600164960FB6F894DEBF0FBE40
S1130490CDBFDF91CF911F910F91FF90EF90089501
S11304A01ABA1BBA17BA8FE088BB14BA15BA8AE213
S11304B081BB92E092BB85E083BF86E082BF22E8E5
S11304C02FBD29E12EBD1DBC1CBC2FE127BD2FE390
S11304D026BD1BBC1ABC19BC18BC27E025BD84BDB5
S11304E081E489BF8BB780648BBF95BF14BE80E461
S11304F08ABF78940E944601CFE3DFE10FE31FE156
S113050088E0E82E92E0D92EF6B280917E00811127
S113051085C0F0FE03C0F1FC40C034C02FEF30E7CB
S113052082E0215030408040E1F700C00000B099E3
S1130530F2CF8091810090918200805B9F4F8F3336
S11305402FE1920728F4909382008093810004C0E5
S11305501093820000938100809181009091820029
S1130560939B04C09E01281B390BC9019BBD8ABD06
S11305706091800070E08091890090918A000E94CF
S11305808001D5CF3FEF80E792E03150804090402A
S1130590E1F700C00000B19B1DC0F2FC3FC03FEF7B
S11305A080E792E0315080409040E1F700C00000C5
S11305B082B38E2582BB80917F0090E0019681708A
S11305C0992780937F0087EC90E00197F1F700C0B2
S11305D0000024C0809181009091820080359105B3
S11305E0C0F0805591099093820080938100939B81
S11305F004C09E01281B390BC9019BBD8ABD6091B3
S1130600800070E08091890090918A000E948001AE
S1130610C2CF1092820010928100BDCFF3FC19C0AA
S11306209FEF20E732E0915020403040E1F700C0D6
S1130630000081E090917E00911180E080937E0023
S113064082B38D2582BB87EC90E00197F1F700C05F
S113065000008091810090918200939B04C09E01D0
S1130660281B390BC9019BBD8ABD6091800070E0D5
S11306708091890090918A000E9480013FEF80E779
S113068092E0315080409040E1F700C000003CCF40
S11306900E945C030C9444040E943D0458F00E94A0
S11306A0360440F029F45F3F29F00C942D045111D5
S11306B00C9478040C9433040E94550468F3992331
S11306C0B1F3552391F3951B550BBB27AA2762174A
S11306D07307840738F09F5F5F4F220F331F441F57
S11306E0AA1FA9F335D00E2E3AF0E0E832D091508B
S11306F05040E695001CCAF72BD0FE2F29D0660F78
S1130700771F881FBB1F261737074807AB07B0E8BA
S113071009F0BB0B802DBF01FF2793585F4F3AF0C0
S11307209E3F510578F00C942D040C9478045F3F9F
S1130730E4F3983ED4F3869577956795B795F79546
S11307409F5FC9F7880F911D9695879597F908952E
S1130750E1E0660F771F881FBB1F621773078407CA
S1130760BA0720F0621B730B840BBA0BEE1F88F7D9
S1130770E09508950E94C1036894B1110C94780423
S113078008950E945D0488F09F5798F0B92F992727
S1130790B751B0F0E1F0660F771F881F991F1AF068
S11307A0BA95C9F714C0B13091F00E947704B1E052
S11307B008950C947704672F782F8827B85F39F051
S11307C0B93FCCF3869577956795B395D9F73EF401
S11307D090958095709561957F4F8F4F9F4F0895A9
S11307E0E89409C097FB3EF49095809570956195C7
S11307F07F4F8F4F9F4F9923A9F0F92F96E9BB277D
S11308009395F695879577956795B795F111F8CFF8
S1130810FAF4BB0F11F460FF1BC06F5F7F4F8F4F63
S11308209F4F16C0882311F096E911C0772321F059
S11308309EE8872F762F05C0662371F096E8862FF1
S113084070E060E02AF09A95660F771F881FDAF748
S1130850880F9695879597F9089597F99F6780E88B
S113086070E060E008959FEF80EC089500240A94FE
S11308701616170618060906089500240A94121677
S11308801306140605060895092E0394000C11F4AA
S1130890882352F0BB0F40F4BF2B11F460FF04C057
S11308A06F5F7F4F8F4F9F4F089557FD9058440FB0
S11308B0551F59F05F3F71F04795880F97FB991FBB
S11308C061F09F3F79F08795089512161306140678
S11308D0551FF2CF4695F1DF08C016161706180605
S11308E0991FF1CF86957105610508940895E894E0
S11308F0BB2766277727CB0197F908950E949104B7
S11309000C9444040E94360438F00E943D0420F004
S1130910952311F00C942D040C94330411240C949D
S113092078040E94550470F3959FC1F3950F50E02D
S1130930551F629FF001729FBB27F00DB11D639F8D
S1130940AA27F00DB11DAA1F649F6627B00DA11D33
S1130950661F829F2227B00DA11D621F739FB00DD9
S1130960A11D621F839FA00D611D221F749F332749
S1130970A00D611D231F849F600D211D822F762FE2
S11309806A2F11249F5750409AF0F1F088234AF0BF
S1130990EE0FFF1FBB1F661F771F881F915050402B
S11309A0A9F79E3F510580F00C942D040C94780413
S11309B05F3FE4F3983ED4F3869577956795B795B2
S11309C0F795E7959F5FC1F7FE2B880F911D9695CC
S11309D0879597F90895AEE0B0E0E1EFF4E00C9468
S11309E0AC070D891E8986E08C831A8309838FEFF7
S11309F09FE79E838D83AE01475E5F4F6F89788D3D
S1130A00CE0101960E940D05EF81F885E00FF11FDC
S1130A1010822E96E4E00C94C807ABE0B0E0E3E16A
S1130A20F5E00C949E076C017B018A01FC0117829E
S1130A301682838181FFCCC1CE0101963C01F6016F
S1130A409381F70193FD859193FF81917F01882321
S1130A5009F4BAC1853239F493FD859193FF8191EC
S1130A607F01853229F4B60190E00E940407E7CFA4
S1130A70912C212C312CFFE1F315D8F08B3279F035
S1130A8038F4803279F08332A1F4232D20611DC023
S1130A908D3261F0803369F4232D216016C0832DDB
S1130AA08260382EE32DE4603E2E2AC0F32DF860D8
S1130AB01DC037FC2DC020ED280F2A3040F08E32A7
S1130AC0B9F436FC81C1232D2064322E19C036FEC0
S1130AD006C08AE0989E200D1124922E11C0EAE0EF
S1130AE02E9E200D1124222EF32DF0623F2E08C0DD
S1130AF08C3621F4832D8068382E02C0883641F468
S1130B00F70193FD859193FF81917F018111B3CF0B
S1130B10982F9F7D9554933028F40C5F1F4F9FE3CB
S1130B2099830DC0833631F0833771F0833509F032
S1130B3059C021C0F801808189830E5F1F4F88242A
S1130B408394912C530113C02801F2E04F0E511CE1
S1130B50F801A080B18036FE03C0692D70E002C0A8
S1130B606FEF7FEFC5010E94F9064C018201F32D5E
S1130B70FF773F2E16C0280122E0420E511CF801D7
S1130B80A080B18036FE03C0692D70E002C06FEF13
S1130B907FEFC5010E94EE064C01F32DF0683F2E55
S1130BA0820133FC1BC0822D90E088169906B0F4B4
S1130BB0B60180E290E00E9404072A94F4CFF50184
S1130BC037FC859137FE81915F01B60190E00E9468
S1130BD0040721102A9421E0821A910881149104B7
S1130BE071F7E8C0843611F0893641F5F80137FE13
S1130BF007C060817181828193810C5F1F4F08C09F
S1130C0060817181072E000C880B990B0E5F1F4FBA
S1130C10F32DFF763F2E97FF09C090958095709530
S1130C2061957F4F8F4F9F4FF0683F2E2AE030E051
S1130C30A3010E944007882E861845C0853731F4E9
S1130C40232D2F7EB22E2AE030E025C0932D997FEC
S1130C50B92E8F36C1F018F4883579F0B5C08037D5
S1130C6019F0883721F0B0C0E92FE061BE2EB4FE40
S1130C700DC0FB2DF460BF2E09C034FE0AC0292F1D
S1130C802660B22E06C028E030E005C020E130E046
S1130C9002C020E132E0F801B7FE07C06081718133
S1130CA0828193810C5F1F4F06C06081718180E057
S1130CB090E00E5F1F4FA3010E944007882E861804
S1130CC0FB2DFF773F2E36FE0DC0232D2E7FA22E47
S1130CD0891458F434FE0BC032FC09C0832D8E7E77
S1130CE0A82E05C0B82CA32C03C0B82C01C0B92C65
S1130CF0A4FE0FC0FE01E80DF11D8081803321F4B4
S1130D009A2D997EA92E09C0A2FE06C0B394B3946D
S1130D1004C08A2D867809F0B394A3FC11C0A0FE08
S1130D2006C0B21488F4280C922C9B180EC0B2147E
S1130D3060F4B60180E290E00E940407B394F7CF18
S1130D40B21418F42B1802C0982C212CA4FE10C045
S1130D50B60180E390E00E940407A2FE17C0A1FC44
S1130D6003C088E790E002C088E590E0B6010CC0BB
S1130D708A2D867859F0A1FE02C08BE201C080E280
S1130D80A7FC8DE2B60190E00E940407891438F4B0
S1130D90B60180E390E00E9404079A94F7CF8A9406
S1130DA0F301E80DF11D8081B60190E00E94040773
S1130DB08110F5CF222009F442CEB60180E290E002
S1130DC00E9404072A94F6CFF6018681978102C017
S1130DD08FEF9FEF2B96E2E10C94BA07FC0105908C
S1130DE0615070400110D8F7809590958E0F9F1F29
S1130DF00895FC016150704001900110D8F780956E
S1130E0090958E0F9F1F08950F931F93CF93DF9399
S1130E10FB01238121FD03C08FEF9FEF2CC022FF34
S1130E2016C046815781248135814217530744F403
S1130E30A081B1819D012F5F3F4F318320838C932B
S1130E40268137812F5F3F4F3783268314C08B0160
S1130E50EC01FB010084F185E02D0995892BE1F675
S1130E60D80116968D919C911797019617969C938D
S1130E708E931697CE01DF91CF911F910F91089514
S1130E80FA01AA27283051F1203181F1E8946F93B7
S1130E906E7F6E5F7F4F8F4F9F4FAF4FB1E03ED05D
S1130EA0B4E03CD0670F781F891F9A1FA11D680FFB
S1130EB0791F8A1F911DA11D6A0F711D811D911D2E
S1130EC0A11D20D009F468943F912AE0269F1124A3
S1130ED03019305D3193DEF6CF010895462F477007
S1130EE0405D4193B3E00FD0C9F7F6CF462F4F7062
S1130EF0405D4A3318F0495D31FD4052419302D0C0
S1130F00A9F7EACFB4E0A695979587957795679565
S1130F10BA95C9F700976105710508959B01AC0165
S1130F200A2E06945795479537952795BA95C9F78C
S1130F30620F731F841F951FA01D08952F923F9267
S1130F404F925F926F927F928F929F92AF92BF92D5
S1130F50CF92DF92EF92FF920F931F93CF93DF9381
S1130F60CDB7DEB7CA1BDB0B0FB6F894DEBF0FBEDE
S1130F70CDBF09942A88398848885F846E847D842B
S1130F808C849B84AA84B984C884DF80EE80FD802D
S1130F900C811B81AA81B981CE0FD11D0FB6F894A3
S1110FA0DEBF0FBECDBFED010895F894FFCF64
S1130FAE256C640050574D2000202000250053501E
S1110FBE454544200052504D00434357000067
S9030000FC
